:020000040000FA
:1000000008EC00F00DEC00F010EC00F054EF00F004
:100010000F0E936E956A946A1200826A836A1200C8
:10002000300E2FEC00F0460E0A6E49EC00F0300E58
:100030002FEC00F02D0E0A6E49EC00F0300E2FEC84
:1000400000F0140E0A6E49EC00F0380E2FEC00F0B0
:100050000C0E2FEC00F0010E2FEC00F0120082903D
:1000600082928294836E82840000000082940F0E3C
:100070000A6E49EC00F01200828082928294836EB4
:1000800082840000000082940F0E0A6E49EC00F09A
:100090001200640E0B6E0A2E4FEF00F012000B2EB2
:1000A0004FEF00F049EF00F0816A818881A0F7EFFF
:1000B00000F081A2F0EF00F081A4E9EF00F081A64A
:1000C000E2EF00F0816A818A81A0DBEF00F081A27B
:1000D000D4EF00F081A4CDEF00F081A6C6EF00F0D0
:1000E000816A818C81A0BFEF00F081A2B8EF00F09F
:1000F00081A4B1EF00F081A6AAEF00F0816A818EA1
:1001000081A0A3EF00F081A29CEF00F081A495EF05
:1001100000F081A68EEF00F054EF00F0FEEC00F04E
:10012000440E3CEC00F054EF00F0FEEC00F0230E27
:100130003CEC00F054EF00F0FEEC00F0300E3CEC34
:1001400000F054EF00F0FEEC00F02A0E3CEC00F062
:1001500054EF00F0FEEC00F0430E3CEC00F054EFE6
:1001600000F0FEEC00F0390E3CEC00F054EF00F033
:10017000FEEC00F0380E3CEC00F054EF00F0FEEC2A
:1001800000F0370E3CEC00F054EF00F0FEEC00F015
:10019000420E3CEC00F054EF00F0FEEC00F0360EA6
:1001A0003CEC00F054EF00F0FEEC00F0350E3CECBF
:1001B00000F054EF00F0FEEC00F0340E3CEC00F0E8
:1001C00054EF00F0FEEC00F0410E3CEC00F054EF78
:1001D00000F0FEEC00F0330E3CEC00F054EF00F0C9
:1001E000FEEC00F0320E3CEC00F054EF00F0FEECC0
:1001F00000F0310E3CEC00F054EF00F081B0FEEF67
:1002000000F081B2FEEF00F081B4FEEF00F081B6A5
:06021000FEEF00F01200F9
:00000001FF
