:020000040000FA
:1000000008EC00F00DEC00F010EC00F054EF00F004
:10001000F00E936E956A946A1200826A836A1200E7
:10002000300E2FEC00F0460E0A6E49EC00F0300E58
:100030002FEC00F02D0E0A6E49EC00F0300E2FEC84
:1000400000F0140E0A6E49EC00F0380E2FEC00F0B0
:100050000C0E2FEC00F0010E2FEC00F0120082903D
:1000600082928294836E82840000000082940F0E3C
:100070000A6E49EC00F01200828082928294836EB4
:1000800082840000000082940F0E0A6E49EC00F09A
:100090001200640E0B6E0A2E4FEF00F012000B2EB2
:1000A0004FEF00F049EF00F0818081B88AEF00F057
:1000B00081BA97EF00F081BCA4EF00F081BEB1EFF0
:1000C00000F0818281B8BEEF00F081BACBEF00F082
:1000D00081BCD8EF00F081BEE5EF00F0818481B8EB
:1000E000F2EF00F081BAFFEF00F081BC0CEF01F0FD
:1000F00081BE19EF01F0818681B826EF01F081BA47
:1001000033EF01F081BC40EF01F081BE4DEF01F013
:1001100054EF00F0110E816254EF00F0020E0D6EEC
:100120005AEC01F0440E3CEC00F054EF00F0210ECC
:10013000816254EF00F0030E0D6E5AEC01F0230EB5
:100140003CEC00F054EF00F0410E816254EF00F0FF
:10015000030E0D6E5AEC01F0300E3CEC00F054EF43
:1001600000F0810E816254EF00F0030E0D6E5AEC28
:1001700001F02A0E3CEC00F054EF00F0120E816208
:1001800054EF00F0030E0D6E5AEC01F0630E3CECE0
:1001900000F054EF00F0220E816254EF00F0030EE5
:1001A0000D6E5AEC01F0390E3CEC00F054EF00F00B
:1001B000420E816254EF00F0030E0D6E5AEC01F016
:1001C000380E3CEC00F054EF00F0820E816254EFE8
:1001D00000F0030E0D6E5AEC01F0370E3CEC00F00F
:1001E00054EF00F0140E816254EF00F0030E0D6E18
:1001F0005AEC01F0420E3CEC00F054EF00F0240EFB
:10020000816254EF00F0030E0D6E5AEC01F0360ED1
:100210003CEC00F054EF00F0440E816254EF00F02B
:10022000030E0D6E5AEC01F0350E3CEC00F054EF6D
:1002300000F0840E816254EF00F0030E0D6E5AEC54
:1002400001F0340E3CEC00F054EF00F0180E816227
:1002500054EF00F0030E0D6E5AEC01F0610E3CEC11
:1002600000F054EF00F0280E816254EF00F0030E0E
:100270000D6E5AEC01F0330E3CEC00F054EF00F040
:10028000480E816254EF00F0030E0D6E5AEC01F03F
:10029000320E3CEC00F054EF00F0880E816254EF17
:1002A00000F0030E0D6E5AEC01F0310E3CEC00F044
:1002B00054EF00F081B85AEF01F081BA5AEF01F023
:0E02C00081BC5AEF01F081BE5AEF01F012002E
:00000001FF
